{
  "contractName": "Voting",
  "abi": [
    {
      "inputs": [],
      "payable": false,
      "stateMutability": "nonpayable",
      "type": "constructor"
    },
    {
      "anonymous": false,
      "inputs": [
        {
          "indexed": true,
          "internalType": "uint256",
          "name": "_candidateId",
          "type": "uint256"
        }
      ],
      "name": "votedEvent",
      "type": "event"
    },
    {
      "constant": true,
      "inputs": [
        {
          "internalType": "uint256",
          "name": "",
          "type": "uint256"
        }
      ],
      "name": "candidates",
      "outputs": [
        {
          "internalType": "uint256",
          "name": "id",
          "type": "uint256"
        },
        {
          "internalType": "string",
          "name": "name",
          "type": "string"
        },
        {
          "internalType": "uint256",
          "name": "votes",
          "type": "uint256"
        }
      ],
      "payable": false,
      "stateMutability": "view",
      "type": "function"
    },
    {
      "constant": true,
      "inputs": [],
      "name": "candidatesCount",
      "outputs": [
        {
          "internalType": "uint256",
          "name": "",
          "type": "uint256"
        }
      ],
      "payable": false,
      "stateMutability": "view",
      "type": "function"
    },
    {
      "constant": true,
      "inputs": [],
      "name": "contractOwner",
      "outputs": [
        {
          "internalType": "address",
          "name": "",
          "type": "address"
        }
      ],
      "payable": false,
      "stateMutability": "view",
      "type": "function"
    },
    {
      "constant": true,
      "inputs": [
        {
          "internalType": "address",
          "name": "",
          "type": "address"
        }
      ],
      "name": "voted",
      "outputs": [
        {
          "internalType": "bool",
          "name": "",
          "type": "bool"
        }
      ],
      "payable": false,
      "stateMutability": "view",
      "type": "function"
    },
    {
      "constant": false,
      "inputs": [
        {
          "internalType": "uint256",
          "name": "_candidateId",
          "type": "uint256"
        }
      ],
      "name": "vote",
      "outputs": [],
      "payable": false,
      "stateMutability": "nonpayable",
      "type": "function"
    }
  ],
  "bytecode": "0x6080604052600060025534801561001557600080fd5b50336000806101000a81548173ffffffffffffffffffffffffffffffffffffffff021916908373ffffffffffffffffffffffffffffffffffffffff16021790555061009a6040518060400160405280600481526020017f546f6c750000000000000000000000000000000000000000000000000000000081525061012760201b60201c565b6100de6040518060400160405280600981526020017f4c696d69746c657373000000000000000000000000000000000000000000000081525061012760201b60201c565b6101226040518060400160405280600481526020017f426f73730000000000000000000000000000000000000000000000000000000081525061012760201b60201c565b61029e565b6000809054906101000a900473ffffffffffffffffffffffffffffffffffffffff1673ffffffffffffffffffffffffffffffffffffffff163373ffffffffffffffffffffffffffffffffffffffff1614156101f6576002600081548092919060010191905055506040518060600160405280600254815260200182815260200160008152506001600060025481526020019081526020016000206000820151816000015560208201518160010190805190602001906101e79291906101f9565b50604082015181600201559050505b50565b828054600181600116156101000203166002900490600052602060002090601f016020900481019282601f1061023a57805160ff1916838001178555610268565b82800160010185558215610268579182015b8281111561026757825182559160200191906001019061024c565b5b5090506102759190610279565b5090565b61029b91905b8082111561029757600081600090555060010161027f565b5090565b90565b610465806102ad6000396000f3fe608060405234801561001057600080fd5b50600436106100575760003560e01c80630121b93f1461005c5780632d35a8a21461008a5780633477ee2e146100a8578063aec2ccae1461015d578063ce606ee0146101b9575b600080fd5b6100886004803603602081101561007257600080fd5b8101908080359060200190929190505050610203565b005b610092610323565b6040518082815260200191505060405180910390f35b6100d4600480360360208110156100be57600080fd5b8101908080359060200190929190505050610329565b6040518084815260200180602001838152602001828103825284818151815260200191508051906020019080838360005b83811015610120578082015181840152602081019050610105565b50505050905090810190601f16801561014d5780820380516001836020036101000a031916815260200191505b5094505050505060405180910390f35b61019f6004803603602081101561017357600080fd5b81019080803573ffffffffffffffffffffffffffffffffffffffff1690602001909291905050506103eb565b604051808215151515815260200191505060405180910390f35b6101c161040b565b604051808273ffffffffffffffffffffffffffffffffffffffff1673ffffffffffffffffffffffffffffffffffffffff16815260200191505060405180910390f35b600360003373ffffffffffffffffffffffffffffffffffffffff1673ffffffffffffffffffffffffffffffffffffffff16815260200190815260200160002060009054906101000a900460ff161561025a57600080fd5b60008111801561026c57506002548111155b61027557600080fd5b60016000828152602001908152602001600020600201600081548092919060010191905055506001600360003373ffffffffffffffffffffffffffffffffffffffff1673ffffffffffffffffffffffffffffffffffffffff16815260200190815260200160002060006101000a81548160ff021916908315150217905550807ffff3c900d938d21d0990d786e819f29b8d05c1ef587b462b939609625b684b1660405160405180910390a250565b60025481565b6001602052806000526040600020600091509050806000015490806001018054600181600116156101000203166002900480601f0160208091040260200160405190810160405280929190818152602001828054600181600116156101000203166002900480156103db5780601f106103b0576101008083540402835291602001916103db565b820191906000526020600020905b8154815290600101906020018083116103be57829003601f168201915b5050505050908060020154905083565b60036020528060005260406000206000915054906101000a900460ff1681565b6000809054906101000a900473ffffffffffffffffffffffffffffffffffffffff168156fea265627a7a72315820da2a888a6df258ce5ce79c8cd50ff6523bfc06aabbe3e01103b5733b6a6091d364736f6c63430005100032",
  "source": "pragma solidity >=0.4.21 <0.7.0;\r\n\r\ncontract Voting {\r\n  address public contractOwner;\r\n\r\n  struct Candidate{\r\n      uint id;\r\n      string name;\r\n      uint votes;\r\n  }\r\n\r\n\r\n  mapping(uint => Candidate) public candidates;\r\n  uint public candidatesCount = 0;\r\n\r\n  event votedEvent(uint indexed _candidateId);\r\n\r\n  mapping(address => bool) public voted;\r\n\r\n\r\n  modifier restricted() {\r\n    if (msg.sender == contractOwner) \r\n    _;\r\n  }\r\n\r\n  constructor() public {\r\n    contractOwner = msg.sender;\r\n    addCandidate(\"Tolu\");\r\n    addCandidate(\"Limitless\");\r\n    addCandidate(\"Boss\");\r\n  }\r\n\r\nfunction addCandidate(string memory _candidateName) private restricted {\r\n  candidatesCount++;\r\n  candidates[candidatesCount] = Candidate(candidatesCount,_candidateName,0);\r\n}\r\n\r\nfunction vote(uint _candidateId) public {\r\n  //require that voter hasn't voted previously.\r\n   require(!voted[msg.sender]);\r\n  //require that candidate is valid.\r\n   require(_candidateId > 0 && _candidateId <= candidatesCount);\r\n  //increment candidate's vote count.\r\n  candidates[_candidateId].votes++;\r\n  //add voter to voted list.\r\n  voted[msg.sender] = true;\r\n  //emit votedEvent\r\n  emit votedEvent(_candidateId);\r\n  //     // require that they haven't voted before\r\n  //       require(!voted[msg.sender]);\r\n\r\n  //       // require a valid candidate\r\n  //       require(_candidateId > 0 && _candidateId <= candidatesCount);\r\n\r\n  //       // record that voter has voted\r\n  //       voted[msg.sender] = true;\r\n\r\n  //       // update candidate vote Count\r\n  //       candidates[_candidateId].votes ++;\r\n\r\n  //       // trigger voted event\r\n  //       emit votedEvent(_candidateId);\r\n  // }\r\n}\r\n}",
  "sourcePath": "C:\\Users\\Limitless\\BlockchainProjects\\Voting DAPP\\contracts\\Voting.sol",
  "compiler": {
    "name": "solc",
    "version": "0.5.16+commit.9c3226ce.Emscripten.clang"
  },
  "schemaVersion": "3.0.23",
  "updatedAt": "2020-04-29T12:54:37.458Z",
  "networkType": "ethereum",
  "devdoc": {
    "methods": {}
  },
  "userdoc": {
    "methods": {}
  }
}